{
  "contractName": "FlappyBird",
  "abi": [
    {
      "inputs": [],
      "stateMutability": "nonpayable",
      "type": "constructor"
    },
    {
      "anonymous": false,
      "inputs": [
        {
          "indexed": true,
          "internalType": "address",
          "name": "owner",
          "type": "address"
        },
        {
          "indexed": true,
          "internalType": "address",
          "name": "approved",
          "type": "address"
        },
        {
          "indexed": true,
          "internalType": "uint256",
          "name": "tokenId",
          "type": "uint256"
        }
      ],
      "name": "Approval",
      "type": "event"
    },
    {
      "anonymous": false,
      "inputs": [
        {
          "indexed": true,
          "internalType": "address",
          "name": "owner",
          "type": "address"
        },
        {
          "indexed": true,
          "internalType": "address",
          "name": "operator",
          "type": "address"
        },
        {
          "indexed": false,
          "internalType": "bool",
          "name": "approved",
          "type": "bool"
        }
      ],
      "name": "ApprovalForAll",
      "type": "event"
    },
    {
      "anonymous": false,
      "inputs": [
        {
          "indexed": true,
          "internalType": "address",
          "name": "from",
          "type": "address"
        },
        {
          "indexed": true,
          "internalType": "address",
          "name": "to",
          "type": "address"
        },
        {
          "indexed": true,
          "internalType": "uint256",
          "name": "tokenId",
          "type": "uint256"
        }
      ],
      "name": "Transfer",
      "type": "event"
    },
    {
      "inputs": [
        {
          "internalType": "address",
          "name": "to",
          "type": "address"
        },
        {
          "internalType": "uint256",
          "name": "tokenId",
          "type": "uint256"
        }
      ],
      "name": "approve",
      "outputs": [],
      "stateMutability": "nonpayable",
      "type": "function"
    },
    {
      "inputs": [
        {
          "internalType": "address",
          "name": "owner",
          "type": "address"
        }
      ],
      "name": "balanceOf",
      "outputs": [
        {
          "internalType": "uint256",
          "name": "",
          "type": "uint256"
        }
      ],
      "stateMutability": "view",
      "type": "function"
    },
    {
      "inputs": [
        {
          "internalType": "uint256",
          "name": "tokenId",
          "type": "uint256"
        }
      ],
      "name": "getApproved",
      "outputs": [
        {
          "internalType": "address",
          "name": "",
          "type": "address"
        }
      ],
      "stateMutability": "view",
      "type": "function"
    },
    {
      "inputs": [
        {
          "internalType": "address",
          "name": "owner",
          "type": "address"
        },
        {
          "internalType": "address",
          "name": "operator",
          "type": "address"
        }
      ],
      "name": "isApprovedForAll",
      "outputs": [
        {
          "internalType": "bool",
          "name": "",
          "type": "bool"
        }
      ],
      "stateMutability": "view",
      "type": "function"
    },
    {
      "inputs": [],
      "name": "name",
      "outputs": [
        {
          "internalType": "string",
          "name": "",
          "type": "string"
        }
      ],
      "stateMutability": "view",
      "type": "function"
    },
    {
      "inputs": [
        {
          "internalType": "uint256",
          "name": "tokenId",
          "type": "uint256"
        }
      ],
      "name": "ownerOf",
      "outputs": [
        {
          "internalType": "address",
          "name": "",
          "type": "address"
        }
      ],
      "stateMutability": "view",
      "type": "function"
    },
    {
      "inputs": [
        {
          "internalType": "address",
          "name": "from",
          "type": "address"
        },
        {
          "internalType": "address",
          "name": "to",
          "type": "address"
        },
        {
          "internalType": "uint256",
          "name": "tokenId",
          "type": "uint256"
        }
      ],
      "name": "safeTransferFrom",
      "outputs": [],
      "stateMutability": "nonpayable",
      "type": "function"
    },
    {
      "inputs": [
        {
          "internalType": "address",
          "name": "from",
          "type": "address"
        },
        {
          "internalType": "address",
          "name": "to",
          "type": "address"
        },
        {
          "internalType": "uint256",
          "name": "tokenId",
          "type": "uint256"
        },
        {
          "internalType": "bytes",
          "name": "_data",
          "type": "bytes"
        }
      ],
      "name": "safeTransferFrom",
      "outputs": [],
      "stateMutability": "nonpayable",
      "type": "function"
    },
    {
      "inputs": [
        {
          "internalType": "address",
          "name": "operator",
          "type": "address"
        },
        {
          "internalType": "bool",
          "name": "approved",
          "type": "bool"
        }
      ],
      "name": "setApprovalForAll",
      "outputs": [],
      "stateMutability": "nonpayable",
      "type": "function"
    },
    {
      "inputs": [
        {
          "internalType": "bytes4",
          "name": "interfaceId",
          "type": "bytes4"
        }
      ],
      "name": "supportsInterface",
      "outputs": [
        {
          "internalType": "bool",
          "name": "",
          "type": "bool"
        }
      ],
      "stateMutability": "view",
      "type": "function"
    },
    {
      "inputs": [],
      "name": "symbol",
      "outputs": [
        {
          "internalType": "string",
          "name": "",
          "type": "string"
        }
      ],
      "stateMutability": "view",
      "type": "function"
    },
    {
      "inputs": [
        {
          "internalType": "uint256",
          "name": "index",
          "type": "uint256"
        }
      ],
      "name": "tokenByIndex",
      "outputs": [
        {
          "internalType": "uint256",
          "name": "",
          "type": "uint256"
        }
      ],
      "stateMutability": "view",
      "type": "function"
    },
    {
      "inputs": [
        {
          "internalType": "address",
          "name": "owner",
          "type": "address"
        },
        {
          "internalType": "uint256",
          "name": "index",
          "type": "uint256"
        }
      ],
      "name": "tokenOfOwnerByIndex",
      "outputs": [
        {
          "internalType": "uint256",
          "name": "",
          "type": "uint256"
        }
      ],
      "stateMutability": "view",
      "type": "function"
    },
    {
      "inputs": [
        {
          "internalType": "uint256",
          "name": "tokenId",
          "type": "uint256"
        }
      ],
      "name": "tokenURI",
      "outputs": [
        {
          "internalType": "string",
          "name": "",
          "type": "string"
        }
      ],
      "stateMutability": "view",
      "type": "function"
    },
    {
      "inputs": [],
      "name": "totalSupply",
      "outputs": [
        {
          "internalType": "uint256",
          "name": "",
          "type": "uint256"
        }
      ],
      "stateMutability": "view",
      "type": "function"
    },
    {
      "inputs": [
        {
          "internalType": "address",
          "name": "from",
          "type": "address"
        },
        {
          "internalType": "address",
          "name": "to",
          "type": "address"
        },
        {
          "internalType": "uint256",
          "name": "tokenId",
          "type": "uint256"
        }
      ],
      "name": "transferFrom",
      "outputs": [],
      "stateMutability": "nonpayable",
      "type": "function"
    },
    {
      "inputs": [
        {
          "internalType": "uint256",
          "name": "_value",
          "type": "uint256"
        }
      ],
      "name": "mint",
      "outputs": [],
      "stateMutability": "nonpayable",
      "type": "function"
    },
    {
      "inputs": [],
      "name": "getBirds",
      "outputs": [
        {
          "internalType": "uint256[]",
          "name": "",
          "type": "uint256[]"
        }
      ],
      "stateMutability": "view",
      "type": "function"
    }
  ],
  "bytecode": "0x60806040523480156200001157600080fd5b506040518060400160405280600d81526020017f466c61707079426972644e4654000000000000000000000000000000000000008152506040518060400160405280600381526020017f4650420000000000000000000000000000000000000000000000000000000000815250816000908051906020019062000096929190620000b8565b508060019080519060200190620000af929190620000b8565b505050620001cd565b828054620000c69062000168565b90600052602060002090601f016020900481019282620000ea576000855562000136565b82601f106200010557805160ff191683800117855562000136565b8280016001018555821562000136579182015b828111156200013557825182559160200191906001019062000118565b5b50905062000145919062000149565b5090565b5b80821115620001645760008160009055506001016200014a565b5090565b600060028204905060018216806200018157607f821691505b602082108114156200019857620001976200019e565b5b50919050565b7f4e487b7100000000000000000000000000000000000000000000000000000000600052602260045260246000fd5b61301480620001dd6000396000f3fe608060405234801561001057600080fd5b50600436106101165760003560e01c80634f6ccce7116100a2578063a0712d6811610071578063a0712d6814610307578063a22cb46514610323578063b88d4fde1461033f578063c87b56dd1461035b578063e985e9c51461038b57610116565b80634f6ccce7146102595780636352211e1461028957806370a08231146102b957806395d89b41146102e957610116565b806318160ddd116100e957806318160ddd146101b55780631fb9dbcc146101d357806323b872dd146101f15780632f745c591461020d57806342842e0e1461023d57610116565b806301ffc9a71461011b57806306fdde031461014b578063081812fc14610169578063095ea7b314610199575b600080fd5b61013560048036038101906101309190611f94565b6103bb565b604051610142919061244d565b60405180910390f35b610153610435565b6040516101609190612468565b60405180910390f35b610183600480360381019061017e9190611fee565b6104c7565b60405161019091906123c4565b60405180910390f35b6101b360048036038101906101ae9190611f54565b61054c565b005b6101bd610664565b6040516101ca919061268a565b60405180910390f35b6101db610671565b6040516101e8919061242b565b60405180910390f35b61020b60048036038101906102069190611e3e565b61071d565b005b61022760048036038101906102229190611f54565b61077d565b604051610234919061268a565b60405180910390f35b61025760048036038101906102529190611e3e565b610822565b005b610273600480360381019061026e9190611fee565b610842565b604051610280919061268a565b60405180910390f35b6102a3600480360381019061029e9190611fee565b6108b3565b6040516102b091906123c4565b60405180910390f35b6102d360048036038101906102ce9190611dd1565b610965565b6040516102e0919061268a565b60405180910390f35b6102f1610a1d565b6040516102fe9190612468565b60405180910390f35b610321600480360381019061031c9190611fee565b610aaf565b005b61033d60048036038101906103389190611f14565b610abc565b005b61035960048036038101906103549190611e91565b610c3d565b005b61037560048036038101906103709190611fee565b610c9f565b6040516103829190612468565b60405180910390f35b6103a560048036038101906103a09190611dfe565b610d46565b6040516103b2919061244d565b60405180910390f35b60007f780e9d63000000000000000000000000000000000000000000000000000000007bffffffffffffffffffffffffffffffffffffffffffffffffffffffff1916827bffffffffffffffffffffffffffffffffffffffffffffffffffffffff1916148061042e575061042d82610dda565b5b9050919050565b606060008054610444906128e8565b80601f0160208091040260200160405190810160405280929190818152602001828054610470906128e8565b80156104bd5780601f10610492576101008083540402835291602001916104bd565b820191906000526020600020905b8154815290600101906020018083116104a057829003601f168201915b5050505050905090565b60006104d282610ebc565b610511576040517f08c379a0000000000000000000000000000000000000000000000000000000008152600401610508906125ca565b60405180910390fd5b6004600083815260200190815260200160002060009054906101000a900473ffffffffffffffffffffffffffffffffffffffff169050919050565b6000610557826108b3565b90508073ffffffffffffffffffffffffffffffffffffffff168373ffffffffffffffffffffffffffffffffffffffff1614156105c8576040517f08c379a00000000000000000000000000000000000000000000000000000000081526004016105bf9061262a565b60405180910390fd5b8073ffffffffffffffffffffffffffffffffffffffff166105e7610f28565b73ffffffffffffffffffffffffffffffffffffffff161480610616575061061581610610610f28565b610d46565b5b610655576040517f08c379a000000000000000000000000000000000000000000000000000000000815260040161064c9061254a565b60405180910390fd5b61065f8383610f30565b505050565b6000600880549050905090565b6060600061067e33610965565b905060008167ffffffffffffffff81111561069c5761069b612ab0565b5b6040519080825280602002602001820160405280156106ca5781602001602082028036833780820191505090505b50905060005b82811015610714576106e2338261077d565b8282815181106106f5576106f4612a81565b5b602002602001018181525050808061070c9061294b565b9150506106d0565b50809250505090565b61072e610728610f28565b82610fe9565b61076d576040517f08c379a00000000000000000000000000000000000000000000000000000000081526004016107649061264a565b60405180910390fd5b6107788383836110c7565b505050565b600061078883610965565b82106107c9576040517f08c379a00000000000000000000000000000000000000000000000000000000081526004016107c09061248a565b60405180910390fd5b600660008473ffffffffffffffffffffffffffffffffffffffff1673ffffffffffffffffffffffffffffffffffffffff168152602001908152602001600020600083815260200190815260200160002054905092915050565b61083d83838360405180602001604052806000815250610c3d565b505050565b600061084c610664565b821061088d576040517f08c379a00000000000000000000000000000000000000000000000000000000081526004016108849061266a565b60405180910390fd5b600882815481106108a1576108a0612a81565b5b90600052602060002001549050919050565b6000806002600084815260200190815260200160002060009054906101000a900473ffffffffffffffffffffffffffffffffffffffff169050600073ffffffffffffffffffffffffffffffffffffffff168173ffffffffffffffffffffffffffffffffffffffff16141561095c576040517f08c379a00000000000000000000000000000000000000000000000000000000081526004016109539061258a565b60405180910390fd5b80915050919050565b60008073ffffffffffffffffffffffffffffffffffffffff168273ffffffffffffffffffffffffffffffffffffffff1614156109d6576040517f08c379a00000000000000000000000000000000000000000000000000000000081526004016109cd9061256a565b60405180910390fd5b600360008373ffffffffffffffffffffffffffffffffffffffff1673ffffffffffffffffffffffffffffffffffffffff168152602001908152602001600020549050919050565b606060018054610a2c906128e8565b80601f0160208091040260200160405190810160405280929190818152602001828054610a58906128e8565b8015610aa55780601f10610a7a57610100808354040283529160200191610aa5565b820191906000526020600020905b815481529060010190602001808311610a8857829003601f168201915b5050505050905090565b610ab93382611323565b50565b610ac4610f28565b73ffffffffffffffffffffffffffffffffffffffff168273ffffffffffffffffffffffffffffffffffffffff161415610b32576040517f08c379a0000000000000000000000000000000000000000000000000000000008152600401610b299061250a565b60405180910390fd5b8060056000610b3f610f28565b73ffffffffffffffffffffffffffffffffffffffff1673ffffffffffffffffffffffffffffffffffffffff16815260200190815260200160002060008473ffffffffffffffffffffffffffffffffffffffff1673ffffffffffffffffffffffffffffffffffffffff16815260200190815260200160002060006101000a81548160ff0219169083151502179055508173ffffffffffffffffffffffffffffffffffffffff16610bec610f28565b73ffffffffffffffffffffffffffffffffffffffff167f17307eab39ab6107e8899845ad3d59bd9653f200f220920489ca2b5937696c3183604051610c31919061244d565b60405180910390a35050565b610c4e610c48610f28565b83610fe9565b610c8d576040517f08c379a0000000000000000000000000000000000000000000000000000000008152600401610c849061264a565b60405180910390fd5b610c99848484846114f1565b50505050565b6060610caa82610ebc565b610ce9576040517f08c379a0000000000000000000000000000000000000000000000000000000008152600401610ce09061260a565b60405180910390fd5b6000610cf361154d565b90506000815111610d135760405180602001604052806000815250610d3e565b80610d1d84611564565b604051602001610d2e9291906123a0565b6040516020818303038152906040525b915050919050565b6000600560008473ffffffffffffffffffffffffffffffffffffffff1673ffffffffffffffffffffffffffffffffffffffff16815260200190815260200160002060008373ffffffffffffffffffffffffffffffffffffffff1673ffffffffffffffffffffffffffffffffffffffff16815260200190815260200160002060009054906101000a900460ff16905092915050565b60007f80ac58cd000000000000000000000000000000000000000000000000000000007bffffffffffffffffffffffffffffffffffffffffffffffffffffffff1916827bffffffffffffffffffffffffffffffffffffffffffffffffffffffff19161480610ea557507f5b5e139f000000000000000000000000000000000000000000000000000000007bffffffffffffffffffffffffffffffffffffffffffffffffffffffff1916827bffffffffffffffffffffffffffffffffffffffffffffffffffffffff1916145b80610eb55750610eb4826116c5565b5b9050919050565b60008073ffffffffffffffffffffffffffffffffffffffff166002600084815260200190815260200160002060009054906101000a900473ffffffffffffffffffffffffffffffffffffffff1673ffffffffffffffffffffffffffffffffffffffff1614159050919050565b600033905090565b816004600083815260200190815260200160002060006101000a81548173ffffffffffffffffffffffffffffffffffffffff021916908373ffffffffffffffffffffffffffffffffffffffff160217905550808273ffffffffffffffffffffffffffffffffffffffff16610fa3836108b3565b73ffffffffffffffffffffffffffffffffffffffff167f8c5be1e5ebec7d5bd14f71427d1e84f3dd0314c0f7b2291e5b200ac8c7c3b92560405160405180910390a45050565b6000610ff482610ebc565b611033576040517f08c379a000000000000000000000000000000000000000000000000000000000815260040161102a9061252a565b60405180910390fd5b600061103e836108b3565b90508073ffffffffffffffffffffffffffffffffffffffff168473ffffffffffffffffffffffffffffffffffffffff1614806110ad57508373ffffffffffffffffffffffffffffffffffffffff16611095846104c7565b73ffffffffffffffffffffffffffffffffffffffff16145b806110be57506110bd8185610d46565b5b91505092915050565b8273ffffffffffffffffffffffffffffffffffffffff166110e7826108b3565b73ffffffffffffffffffffffffffffffffffffffff161461113d576040517f08c379a0000000000000000000000000000000000000000000000000000000008152600401611134906125ea565b60405180910390fd5b600073ffffffffffffffffffffffffffffffffffffffff168273ffffffffffffffffffffffffffffffffffffffff1614156111ad576040517f08c379a00000000000000000000000000000000000000000000000000000000081526004016111a4906124ea565b60405180910390fd5b6111b883838361172f565b6111c3600082610f30565b6001600360008573ffffffffffffffffffffffffffffffffffffffff1673ffffffffffffffffffffffffffffffffffffffff168152602001908152602001600020600082825461121391906127fe565b925050819055506001600360008473ffffffffffffffffffffffffffffffffffffffff1673ffffffffffffffffffffffffffffffffffffffff168152602001908152602001600020600082825461126a9190612777565b92505081905550816002600083815260200190815260200160002060006101000a81548173ffffffffffffffffffffffffffffffffffffffff021916908373ffffffffffffffffffffffffffffffffffffffff160217905550808273ffffffffffffffffffffffffffffffffffffffff168473ffffffffffffffffffffffffffffffffffffffff167fddf252ad1be2c89b69c2b068fc378daa952ba7f163c4a11628f55a4df523b3ef60405160405180910390a4505050565b600073ffffffffffffffffffffffffffffffffffffffff168273ffffffffffffffffffffffffffffffffffffffff161415611393576040517f08c379a000000000000000000000000000000000000000000000000000000000815260040161138a906125aa565b60405180910390fd5b61139c81610ebc565b156113dc576040517f08c379a00000000000000000000000000000000000000000000000000000000081526004016113d3906124ca565b60405180910390fd5b6113e86000838361172f565b6001600360008473ffffffffffffffffffffffffffffffffffffffff1673ffffffffffffffffffffffffffffffffffffffff16815260200190815260200160002060008282546114389190612777565b92505081905550816002600083815260200190815260200160002060006101000a81548173ffffffffffffffffffffffffffffffffffffffff021916908373ffffffffffffffffffffffffffffffffffffffff160217905550808273ffffffffffffffffffffffffffffffffffffffff16600073ffffffffffffffffffffffffffffffffffffffff167fddf252ad1be2c89b69c2b068fc378daa952ba7f163c4a11628f55a4df523b3ef60405160405180910390a45050565b6114fc8484846110c7565b61150884848484611843565b611547576040517f08c379a000000000000000000000000000000000000000000000000000000000815260040161153e906124aa565b60405180910390fd5b50505050565b606060405180602001604052806000815250905090565b606060008214156115ac576040518060400160405280600181526020017f300000000000000000000000000000000000000000000000000000000000000081525090506116c0565b600082905060005b600082146115de5780806115c79061294b565b915050600a826115d791906127cd565b91506115b4565b60008167ffffffffffffffff8111156115fa576115f9612ab0565b5b6040519080825280601f01601f19166020018201604052801561162c5781602001600182028036833780820191505090505b5090505b600085146116b95760018261164591906127fe565b9150600a856116549190612994565b60306116609190612777565b60f81b81838151811061167657611675612a81565b5b60200101907effffffffffffffffffffffffffffffffffffffffffffffffffffffffffffff1916908160001a905350600a856116b291906127cd565b9450611630565b8093505050505b919050565b60007f01ffc9a7000000000000000000000000000000000000000000000000000000007bffffffffffffffffffffffffffffffffffffffffffffffffffffffff1916827bffffffffffffffffffffffffffffffffffffffffffffffffffffffff1916149050919050565b61173a8383836119da565b600073ffffffffffffffffffffffffffffffffffffffff168373ffffffffffffffffffffffffffffffffffffffff16141561177d57611778816119df565b6117bc565b8173ffffffffffffffffffffffffffffffffffffffff168373ffffffffffffffffffffffffffffffffffffffff16146117bb576117ba8382611a28565b5b5b600073ffffffffffffffffffffffffffffffffffffffff168273ffffffffffffffffffffffffffffffffffffffff1614156117ff576117fa81611b95565b61183e565b8273ffffffffffffffffffffffffffffffffffffffff168273ffffffffffffffffffffffffffffffffffffffff161461183d5761183c8282611c66565b5b5b505050565b60006118648473ffffffffffffffffffffffffffffffffffffffff16611ce5565b156119cd578373ffffffffffffffffffffffffffffffffffffffff1663150b7a0261188d610f28565b8786866040518563ffffffff1660e01b81526004016118af94939291906123df565b602060405180830381600087803b1580156118c957600080fd5b505af19250505080156118fa57506040513d601f19601f820116820180604052508101906118f79190611fc1565b60015b61197d573d806000811461192a576040519150601f19603f3d011682016040523d82523d6000602084013e61192f565b606091505b50600081511415611975576040517f08c379a000000000000000000000000000000000000000000000000000000000815260040161196c906124aa565b60405180910390fd5b805181602001fd5b63150b7a0260e01b7bffffffffffffffffffffffffffffffffffffffffffffffffffffffff1916817bffffffffffffffffffffffffffffffffffffffffffffffffffffffff1916149150506119d2565b600190505b949350505050565b505050565b6008805490506009600083815260200190815260200160002081905550600881908060018154018082558091505060019003906000526020600020016000909190919091505550565b60006001611a3584610965565b611a3f91906127fe565b9050600060076000848152602001908152602001600020549050818114611b24576000600660008673ffffffffffffffffffffffffffffffffffffffff1673ffffffffffffffffffffffffffffffffffffffff168152602001908152602001600020600084815260200190815260200160002054905080600660008773ffffffffffffffffffffffffffffffffffffffff1673ffffffffffffffffffffffffffffffffffffffff168152602001908152602001600020600084815260200190815260200160002081905550816007600083815260200190815260200160002081905550505b6007600084815260200190815260200160002060009055600660008573ffffffffffffffffffffffffffffffffffffffff1673ffffffffffffffffffffffffffffffffffffffff16815260200190815260200160002060008381526020019081526020016000206000905550505050565b60006001600880549050611ba991906127fe565b9050600060096000848152602001908152602001600020549050600060088381548110611bd957611bd8612a81565b5b906000526020600020015490508060088381548110611bfb57611bfa612a81565b5b906000526020600020018190555081600960008381526020019081526020016000208190555060096000858152602001908152602001600020600090556008805480611c4a57611c49612a52565b5b6001900381819060005260206000200160009055905550505050565b6000611c7183610965565b905081600660008573ffffffffffffffffffffffffffffffffffffffff1673ffffffffffffffffffffffffffffffffffffffff168152602001908152602001600020600083815260200190815260200160002081905550806007600084815260200190815260200160002081905550505050565b600080823b905060008111915050919050565b6000611d0b611d06846126ca565b6126a5565b905082815260208101848484011115611d2757611d26612ae4565b5b611d328482856128a6565b509392505050565b600081359050611d4981612f82565b92915050565b600081359050611d5e81612f99565b92915050565b600081359050611d7381612fb0565b92915050565b600081519050611d8881612fb0565b92915050565b600082601f830112611da357611da2612adf565b5b8135611db3848260208601611cf8565b91505092915050565b600081359050611dcb81612fc7565b92915050565b600060208284031215611de757611de6612aee565b5b6000611df584828501611d3a565b91505092915050565b60008060408385031215611e1557611e14612aee565b5b6000611e2385828601611d3a565b9250506020611e3485828601611d3a565b9150509250929050565b600080600060608486031215611e5757611e56612aee565b5b6000611e6586828701611d3a565b9350506020611e7686828701611d3a565b9250506040611e8786828701611dbc565b9150509250925092565b60008060008060808587031215611eab57611eaa612aee565b5b6000611eb987828801611d3a565b9450506020611eca87828801611d3a565b9350506040611edb87828801611dbc565b925050606085013567ffffffffffffffff811115611efc57611efb612ae9565b5b611f0887828801611d8e565b91505092959194509250565b60008060408385031215611f2b57611f2a612aee565b5b6000611f3985828601611d3a565b9250506020611f4a85828601611d4f565b9150509250929050565b60008060408385031215611f6b57611f6a612aee565b5b6000611f7985828601611d3a565b9250506020611f8a85828601611dbc565b9150509250929050565b600060208284031215611faa57611fa9612aee565b5b6000611fb884828501611d64565b91505092915050565b600060208284031215611fd757611fd6612aee565b5b6000611fe584828501611d79565b91505092915050565b60006020828403121561200457612003612aee565b5b600061201284828501611dbc565b91505092915050565b60006120278383612382565b60208301905092915050565b61203c81612832565b82525050565b600061204d8261270b565b6120578185612739565b9350612062836126fb565b8060005b8381101561209357815161207a888261201b565b97506120858361272c565b925050600181019050612066565b5085935050505092915050565b6120a981612844565b82525050565b60006120ba82612716565b6120c4818561274a565b93506120d48185602086016128b5565b6120dd81612af3565b840191505092915050565b60006120f382612721565b6120fd818561275b565b935061210d8185602086016128b5565b61211681612af3565b840191505092915050565b600061212c82612721565b612136818561276c565b93506121468185602086016128b5565b80840191505092915050565b600061215f602b8361275b565b915061216a82612b04565b604082019050919050565b600061218260328361275b565b915061218d82612b53565b604082019050919050565b60006121a5601c8361275b565b91506121b082612ba2565b602082019050919050565b60006121c860248361275b565b91506121d382612bcb565b604082019050919050565b60006121eb60198361275b565b91506121f682612c1a565b602082019050919050565b600061220e602c8361275b565b915061221982612c43565b604082019050919050565b600061223160388361275b565b915061223c82612c92565b604082019050919050565b6000612254602a8361275b565b915061225f82612ce1565b604082019050919050565b600061227760298361275b565b915061228282612d30565b604082019050919050565b600061229a60208361275b565b91506122a582612d7f565b602082019050919050565b60006122bd602c8361275b565b91506122c882612da8565b604082019050919050565b60006122e060298361275b565b91506122eb82612df7565b604082019050919050565b6000612303602f8361275b565b915061230e82612e46565b604082019050919050565b600061232660218361275b565b915061233182612e95565b604082019050919050565b600061234960318361275b565b915061235482612ee4565b604082019050919050565b600061236c602c8361275b565b915061237782612f33565b604082019050919050565b61238b8161289c565b82525050565b61239a8161289c565b82525050565b60006123ac8285612121565b91506123b88284612121565b91508190509392505050565b60006020820190506123d96000830184612033565b92915050565b60006080820190506123f46000830187612033565b6124016020830186612033565b61240e6040830185612391565b818103606083015261242081846120af565b905095945050505050565b600060208201905081810360008301526124458184612042565b905092915050565b600060208201905061246260008301846120a0565b92915050565b6000602082019050818103600083015261248281846120e8565b905092915050565b600060208201905081810360008301526124a381612152565b9050919050565b600060208201905081810360008301526124c381612175565b9050919050565b600060208201905081810360008301526124e381612198565b9050919050565b60006020820190508181036000830152612503816121bb565b9050919050565b60006020820190508181036000830152612523816121de565b9050919050565b6000602082019050818103600083015261254381612201565b9050919050565b6000602082019050818103600083015261256381612224565b9050919050565b6000602082019050818103600083015261258381612247565b9050919050565b600060208201905081810360008301526125a38161226a565b9050919050565b600060208201905081810360008301526125c38161228d565b9050919050565b600060208201905081810360008301526125e3816122b0565b9050919050565b60006020820190508181036000830152612603816122d3565b9050919050565b60006020820190508181036000830152612623816122f6565b9050919050565b6000602082019050818103600083015261264381612319565b9050919050565b600060208201905081810360008301526126638161233c565b9050919050565b600060208201905081810360008301526126838161235f565b9050919050565b600060208201905061269f6000830184612391565b92915050565b60006126af6126c0565b90506126bb828261291a565b919050565b6000604051905090565b600067ffffffffffffffff8211156126e5576126e4612ab0565b5b6126ee82612af3565b9050602081019050919050565b6000819050602082019050919050565b600081519050919050565b600081519050919050565b600081519050919050565b6000602082019050919050565b600082825260208201905092915050565b600082825260208201905092915050565b600082825260208201905092915050565b600081905092915050565b60006127828261289c565b915061278d8361289c565b9250827fffffffffffffffffffffffffffffffffffffffffffffffffffffffffffffffff038211156127c2576127c16129c5565b5b828201905092915050565b60006127d88261289c565b91506127e38361289c565b9250826127f3576127f26129f4565b5b828204905092915050565b60006128098261289c565b91506128148361289c565b925082821015612827576128266129c5565b5b828203905092915050565b600061283d8261287c565b9050919050565b60008115159050919050565b60007fffffffff0000000000000000000000000000000000000000000000000000000082169050919050565b600073ffffffffffffffffffffffffffffffffffffffff82169050919050565b6000819050919050565b82818337600083830152505050565b60005b838110156128d35780820151818401526020810190506128b8565b838111156128e2576000848401525b50505050565b6000600282049050600182168061290057607f821691505b6020821081141561291457612913612a23565b5b50919050565b61292382612af3565b810181811067ffffffffffffffff8211171561294257612941612ab0565b5b80604052505050565b60006129568261289c565b91507fffffffffffffffffffffffffffffffffffffffffffffffffffffffffffffffff821415612989576129886129c5565b5b600182019050919050565b600061299f8261289c565b91506129aa8361289c565b9250826129ba576129b96129f4565b5b828206905092915050565b7f4e487b7100000000000000000000000000000000000000000000000000000000600052601160045260246000fd5b7f4e487b7100000000000000000000000000000000000000000000000000000000600052601260045260246000fd5b7f4e487b7100000000000000000000000000000000000000000000000000000000600052602260045260246000fd5b7f4e487b7100000000000000000000000000000000000000000000000000000000600052603160045260246000fd5b7f4e487b7100000000000000000000000000000000000000000000000000000000600052603260045260246000fd5b7f4e487b7100000000000000000000000000000000000000000000000000000000600052604160045260246000fd5b600080fd5b600080fd5b600080fd5b600080fd5b6000601f19601f8301169050919050565b7f455243373231456e756d657261626c653a206f776e657220696e646578206f7560008201527f74206f6620626f756e6473000000000000000000000000000000000000000000602082015250565b7f4552433732313a207472616e7366657220746f206e6f6e20455243373231526560008201527f63656976657220696d706c656d656e7465720000000000000000000000000000602082015250565b7f4552433732313a20746f6b656e20616c7265616479206d696e74656400000000600082015250565b7f4552433732313a207472616e7366657220746f20746865207a65726f2061646460008201527f7265737300000000000000000000000000000000000000000000000000000000602082015250565b7f4552433732313a20617070726f766520746f2063616c6c657200000000000000600082015250565b7f4552433732313a206f70657261746f7220717565727920666f72206e6f6e657860008201527f697374656e7420746f6b656e0000000000000000000000000000000000000000602082015250565b7f4552433732313a20617070726f76652063616c6c6572206973206e6f74206f7760008201527f6e6572206e6f7220617070726f76656420666f7220616c6c0000000000000000602082015250565b7f4552433732313a2062616c616e636520717565727920666f7220746865207a6560008201527f726f206164647265737300000000000000000000000000000000000000000000602082015250565b7f4552433732313a206f776e657220717565727920666f72206e6f6e657869737460008201527f656e7420746f6b656e0000000000000000000000000000000000000000000000602082015250565b7f4552433732313a206d696e7420746f20746865207a65726f2061646472657373600082015250565b7f4552433732313a20617070726f76656420717565727920666f72206e6f6e657860008201527f697374656e7420746f6b656e0000000000000000000000000000000000000000602082015250565b7f4552433732313a207472616e73666572206f6620746f6b656e2074686174206960008201527f73206e6f74206f776e0000000000000000000000000000000000000000000000602082015250565b7f4552433732314d657461646174613a2055524920717565727920666f72206e6f60008201527f6e6578697374656e7420746f6b656e0000000000000000000000000000000000602082015250565b7f4552433732313a20617070726f76616c20746f2063757272656e74206f776e6560008201527f7200000000000000000000000000000000000000000000000000000000000000602082015250565b7f4552433732313a207472616e736665722063616c6c6572206973206e6f74206f60008201527f776e6572206e6f7220617070726f766564000000000000000000000000000000602082015250565b7f455243373231456e756d657261626c653a20676c6f62616c20696e646578206f60008201527f7574206f6620626f756e64730000000000000000000000000000000000000000602082015250565b612f8b81612832565b8114612f9657600080fd5b50565b612fa281612844565b8114612fad57600080fd5b50565b612fb981612850565b8114612fc457600080fd5b50565b612fd08161289c565b8114612fdb57600080fd5b5056fea2646970667358221220db8aea72fa562379b63aabd6923c3bdc5ca312df8df78c6f830b3509abcafd8a64736f6c63430008070033",
  "immutableReferences": {},
  "source": "// SPDX-License-Identifier: GPL-3.0\npragma solidity ^0.8.0;\nimport \"@openzeppelin/contracts/token/ERC721/extensions/ERC721Enumerable.sol\";\n\ncontract FlappyBird is ERC721Enumerable {\n    constructor() ERC721(\"FlappyBirdNFT\", \"FPB\") {}\n\n    function mint(uint256 _value) public {\n        _mint(msg.sender, _value);\n    }\n\n    function getBirds() public view returns (uint256[] memory) {\n        uint256 len = balanceOf(msg.sender);\n        uint256[] memory result = new uint256[](len);\n        for (uint256 i = 0; i < len; i++)\n            result[i] = tokenOfOwnerByIndex(msg.sender, i);\n        return result;\n    }\n}\n",
  "sourcePath": "D:/LONG/nft-characters/contracts/FlappyBird.sol",
  "compiler": {
    "name": "solc",
    "version": "0.8.7+commit.e28d00a7.Emscripten.clang"
  },
  "schemaVersion": "3.4.1",
  "updatedAt": "2021-08-31T15:44:21.214Z",
  "devdoc": {
    "kind": "dev",
    "methods": {
      "approve(address,uint256)": {
        "details": "See {IERC721-approve}."
      },
      "balanceOf(address)": {
        "details": "See {IERC721-balanceOf}."
      },
      "getApproved(uint256)": {
        "details": "See {IERC721-getApproved}."
      },
      "isApprovedForAll(address,address)": {
        "details": "See {IERC721-isApprovedForAll}."
      },
      "name()": {
        "details": "See {IERC721Metadata-name}."
      },
      "ownerOf(uint256)": {
        "details": "See {IERC721-ownerOf}."
      },
      "safeTransferFrom(address,address,uint256)": {
        "details": "See {IERC721-safeTransferFrom}."
      },
      "safeTransferFrom(address,address,uint256,bytes)": {
        "details": "See {IERC721-safeTransferFrom}."
      },
      "setApprovalForAll(address,bool)": {
        "details": "See {IERC721-setApprovalForAll}."
      },
      "supportsInterface(bytes4)": {
        "details": "See {IERC165-supportsInterface}."
      },
      "symbol()": {
        "details": "See {IERC721Metadata-symbol}."
      },
      "tokenByIndex(uint256)": {
        "details": "See {IERC721Enumerable-tokenByIndex}."
      },
      "tokenOfOwnerByIndex(address,uint256)": {
        "details": "See {IERC721Enumerable-tokenOfOwnerByIndex}."
      },
      "tokenURI(uint256)": {
        "details": "See {IERC721Metadata-tokenURI}."
      },
      "totalSupply()": {
        "details": "See {IERC721Enumerable-totalSupply}."
      },
      "transferFrom(address,address,uint256)": {
        "details": "See {IERC721-transferFrom}."
      }
    },
    "version": 1
  },
  "userdoc": {
    "kind": "user",
    "methods": {},
    "version": 1
  }
}